{
  "contractName": "BuyingPet",
  "abi": [
    {
      "constant": true,
      "inputs": [],
      "name": "consumer",
      "outputs": [
        {
          "name": "",
          "type": "address"
        }
      ],
      "payable": false,
      "stateMutability": "view",
      "type": "function"
    },
    {
      "inputs": [],
      "payable": false,
      "stateMutability": "nonpayable",
      "type": "constructor"
    },
    {
      "constant": true,
      "inputs": [
        {
          "name": "consumer",
          "type": "address"
        }
      ],
      "name": "getBalance",
      "outputs": [
        {
          "name": "",
          "type": "uint256"
        }
      ],
      "payable": false,
      "stateMutability": "view",
      "type": "function"
    },
    {
      "constant": false,
      "inputs": [
        {
          "name": "sellerAddress",
          "type": "address"
        },
        {
          "name": "consumer",
          "type": "address"
        },
        {
          "name": "_value",
          "type": "uint256"
        }
      ],
      "name": "purchase",
      "outputs": [],
      "payable": true,
      "stateMutability": "payable",
      "type": "function"
    }
  ],
  "bytecode": "0x608060405234801561001057600080fd5b50336000806101000a81548173ffffffffffffffffffffffffffffffffffffffff021916908373ffffffffffffffffffffffffffffffffffffffff16021790555061023f806100606000396000f300608060405260043610610057576000357c0100000000000000000000000000000000000000000000000000000000900463ffffffff168063640441561461005c578063b4fd7296146100bc578063f8b2cb4f14610113575b600080fd5b6100ba600480360381019080803573ffffffffffffffffffffffffffffffffffffffff169060200190929190803573ffffffffffffffffffffffffffffffffffffffff1690602001909291908035906020019092919050505061016a565b005b3480156100c857600080fd5b506100d16101cd565b604051808273ffffffffffffffffffffffffffffffffffffffff1673ffffffffffffffffffffffffffffffffffffffff16815260200191505060405180910390f35b34801561011f57600080fd5b50610154600480360381019080803573ffffffffffffffffffffffffffffffffffffffff1690602001909291905050506101f2565b6040518082815260200191505060405180910390f35b80610174836101f2565b1015151561018157600080fd5b8273ffffffffffffffffffffffffffffffffffffffff166108fc829081150290604051600060405180830381858888f193505050501580156101c7573d6000803e3d6000fd5b50505050565b6000809054906101000a900473ffffffffffffffffffffffffffffffffffffffff1681565b60008173ffffffffffffffffffffffffffffffffffffffff163190509190505600a165627a7a72305820de4e68a493d15221a5a34ea74ad69644af8ce345bf72654a68cbc599348897f00029",
  "source": "pragma solidity 0.4.25;\r\n\r\ncontract BuyingPet {\r\n  address public consumer;//구매자의 퍼블릭 주소\r\n  constructor() public {\r\n    consumer = msg.sender;\r\n  }\r\n  function getBalance(address consumer) public view returns (uint) {\r\n    return consumer.balance;\r\n  }\r\n  function purchase(address sellerAddress, address consumer, uint _value)\r\n                                  public payable {\r\n    require(getBalance(consumer) >= _value);\r\n    sellerAddress.transfer(_value);\r\n  }\r\n}",
  "sourcePath": "D:\\bc_market\\dog-system and file-server\\dog-system\\contracts\\BuyingPet.sol",
  "compiler": {
    "name": "solc",
    "version": "0.4.25+commit.59dbf8f1.Emscripten.clang"
  },
  "schemaVersion": "2.0.2",
  "updatedAt": "2019-07-21T10:55:08.089Z"
}