{
  "contractName": "PetMarketSystem",
  "abi": [
    {
      "constant": false,
      "inputs": [
        {
          "name": "_userAddress",
          "type": "address"
        },
        {
          "name": "_bId",
          "type": "string"
        },
        {
          "name": "_bPw",
          "type": "string"
        }
      ],
      "name": "createUser",
      "outputs": [],
      "payable": false,
      "stateMutability": "nonpayable",
      "type": "function"
    },
    {
      "constant": true,
      "inputs": [
        {
          "name": "_userAddress",
          "type": "address"
        }
      ],
      "name": "getUser",
      "outputs": [
        {
          "components": [
            {
              "name": "userAddress",
              "type": "address"
            },
            {
              "name": "bId",
              "type": "string"
            },
            {
              "name": "bPw",
              "type": "string"
            },
            {
              "name": "petIds",
              "type": "uint256[]"
            },
            {
              "name": "txHashs",
              "type": "string[]"
            }
          ],
          "name": "",
          "type": "tuple"
        }
      ],
      "payable": false,
      "stateMutability": "view",
      "type": "function"
    },
    {
      "constant": true,
      "inputs": [
        {
          "name": "_userAddress",
          "type": "address"
        }
      ],
      "name": "getPetIdsOfUser",
      "outputs": [
        {
          "name": "",
          "type": "uint256[]"
        }
      ],
      "payable": false,
      "stateMutability": "view",
      "type": "function"
    },
    {
      "constant": true,
      "inputs": [
        {
          "name": "_userAddress",
          "type": "address"
        }
      ],
      "name": "getPetOfUser",
      "outputs": [
        {
          "components": [
            {
              "name": "id",
              "type": "uint256"
            },
            {
              "name": "name",
              "type": "string"
            },
            {
              "name": "breed",
              "type": "string"
            },
            {
              "name": "birthday",
              "type": "string"
            },
            {
              "name": "sex",
              "type": "bool"
            },
            {
              "name": "weightKg",
              "type": "uint256"
            },
            {
              "name": "noseHash",
              "type": "string"
            },
            {
              "name": "owner",
              "type": "address"
            },
            {
              "name": "price",
              "type": "uint256"
            },
            {
              "name": "dailyDataIds",
              "type": "uint256[]"
            }
          ],
          "name": "",
          "type": "tuple[]"
        }
      ],
      "payable": false,
      "stateMutability": "view",
      "type": "function"
    },
    {
      "constant": true,
      "inputs": [
        {
          "name": "_userAddress",
          "type": "address"
        }
      ],
      "name": "getTxHashsOfUser",
      "outputs": [
        {
          "name": "",
          "type": "string[]"
        }
      ],
      "payable": false,
      "stateMutability": "view",
      "type": "function"
    },
    {
      "constant": true,
      "inputs": [
        {
          "name": "_userAddress",
          "type": "address"
        }
      ],
      "name": "getTransactionOfUser",
      "outputs": [
        {
          "components": [
            {
              "name": "txHash",
              "type": "string"
            },
            {
              "name": "consumerAddress",
              "type": "address"
            },
            {
              "name": "sellerAddress",
              "type": "address"
            },
            {
              "name": "petId",
              "type": "uint256"
            }
          ],
          "name": "",
          "type": "tuple[]"
        }
      ],
      "payable": false,
      "stateMutability": "view",
      "type": "function"
    },
    {
      "constant": false,
      "inputs": [
        {
          "name": "userAddress",
          "type": "address"
        },
        {
          "name": "_name",
          "type": "string"
        },
        {
          "name": "_breed",
          "type": "string"
        },
        {
          "name": "_birthday",
          "type": "string"
        },
        {
          "name": "_sex",
          "type": "bool"
        },
        {
          "name": "_weightKg",
          "type": "uint256"
        }
      ],
      "name": "createPet",
      "outputs": [],
      "payable": false,
      "stateMutability": "nonpayable",
      "type": "function"
    },
    {
      "constant": false,
      "inputs": [
        {
          "name": "userAddress",
          "type": "address"
        },
        {
          "name": "_name",
          "type": "string[]"
        },
        {
          "name": "_breed",
          "type": "string[]"
        },
        {
          "name": "_birthday",
          "type": "string[]"
        },
        {
          "name": "_sex",
          "type": "bool[]"
        },
        {
          "name": "_weightKg",
          "type": "uint256[]"
        }
      ],
      "name": "createPets",
      "outputs": [],
      "payable": false,
      "stateMutability": "nonpayable",
      "type": "function"
    },
    {
      "constant": false,
      "inputs": [
        {
          "name": "petId",
          "type": "uint256"
        },
        {
          "name": "_price",
          "type": "uint256"
        }
      ],
      "name": "registerPetPrice",
      "outputs": [],
      "payable": false,
      "stateMutability": "nonpayable",
      "type": "function"
    },
    {
      "constant": true,
      "inputs": [],
      "name": "getNumPets",
      "outputs": [
        {
          "name": "",
          "type": "uint256"
        }
      ],
      "payable": false,
      "stateMutability": "view",
      "type": "function"
    },
    {
      "constant": true,
      "inputs": [
        {
          "name": "petId",
          "type": "uint256"
        }
      ],
      "name": "getPet",
      "outputs": [
        {
          "components": [
            {
              "name": "id",
              "type": "uint256"
            },
            {
              "name": "name",
              "type": "string"
            },
            {
              "name": "breed",
              "type": "string"
            },
            {
              "name": "birthday",
              "type": "string"
            },
            {
              "name": "sex",
              "type": "bool"
            },
            {
              "name": "weightKg",
              "type": "uint256"
            },
            {
              "name": "noseHash",
              "type": "string"
            },
            {
              "name": "owner",
              "type": "address"
            },
            {
              "name": "price",
              "type": "uint256"
            },
            {
              "name": "dailyDataIds",
              "type": "uint256[]"
            }
          ],
          "name": "",
          "type": "tuple"
        }
      ],
      "payable": false,
      "stateMutability": "view",
      "type": "function"
    },
    {
      "constant": true,
      "inputs": [
        {
          "name": "petId",
          "type": "uint256"
        }
      ],
      "name": "getLastDateOfDailyDataOfPet",
      "outputs": [
        {
          "name": "",
          "type": "string"
        }
      ],
      "payable": false,
      "stateMutability": "view",
      "type": "function"
    },
    {
      "constant": true,
      "inputs": [
        {
          "name": "petId",
          "type": "uint256"
        }
      ],
      "name": "getDailyDataIdsOfPet",
      "outputs": [
        {
          "name": "",
          "type": "uint256[]"
        }
      ],
      "payable": false,
      "stateMutability": "view",
      "type": "function"
    },
    {
      "constant": true,
      "inputs": [
        {
          "name": "petId",
          "type": "uint256"
        }
      ],
      "name": "getDailyDataOfPet",
      "outputs": [
        {
          "components": [
            {
              "name": "id",
              "type": "uint256"
            },
            {
              "name": "date",
              "type": "string"
            },
            {
              "name": "sun",
              "type": "string"
            },
            {
              "name": "uv",
              "type": "string"
            },
            {
              "name": "vit",
              "type": "string"
            },
            {
              "name": "act",
              "type": "string"
            },
            {
              "name": "play",
              "type": "string"
            },
            {
              "name": "rest",
              "type": "string"
            },
            {
              "name": "cal",
              "type": "string"
            },
            {
              "name": "bark",
              "type": "string"
            },
            {
              "name": "dep",
              "type": "string"
            },
            {
              "name": "lux",
              "type": "string"
            }
          ],
          "name": "",
          "type": "tuple[]"
        }
      ],
      "payable": false,
      "stateMutability": "view",
      "type": "function"
    },
    {
      "constant": false,
      "inputs": [
        {
          "name": "petId",
          "type": "uint256"
        },
        {
          "name": "_noseHash",
          "type": "string"
        }
      ],
      "name": "registerPictureHash",
      "outputs": [],
      "payable": false,
      "stateMutability": "nonpayable",
      "type": "function"
    },
    {
      "constant": true,
      "inputs": [
        {
          "name": "petId",
          "type": "uint256"
        }
      ],
      "name": "getPictureHash",
      "outputs": [
        {
          "name": "",
          "type": "string"
        }
      ],
      "payable": false,
      "stateMutability": "view",
      "type": "function"
    },
    {
      "constant": false,
      "inputs": [
        {
          "name": "petId",
          "type": "uint256"
        },
        {
          "name": "date",
          "type": "string"
        },
        {
          "name": "d",
          "type": "string[]"
        }
      ],
      "name": "createDailyData",
      "outputs": [],
      "payable": false,
      "stateMutability": "nonpayable",
      "type": "function"
    },
    {
      "constant": true,
      "inputs": [
        {
          "name": "ddId",
          "type": "uint256"
        }
      ],
      "name": "getDailyData",
      "outputs": [
        {
          "components": [
            {
              "name": "id",
              "type": "uint256"
            },
            {
              "name": "date",
              "type": "string"
            },
            {
              "name": "sun",
              "type": "string"
            },
            {
              "name": "uv",
              "type": "string"
            },
            {
              "name": "vit",
              "type": "string"
            },
            {
              "name": "act",
              "type": "string"
            },
            {
              "name": "play",
              "type": "string"
            },
            {
              "name": "rest",
              "type": "string"
            },
            {
              "name": "cal",
              "type": "string"
            },
            {
              "name": "bark",
              "type": "string"
            },
            {
              "name": "dep",
              "type": "string"
            },
            {
              "name": "lux",
              "type": "string"
            }
          ],
          "name": "",
          "type": "tuple"
        }
      ],
      "payable": false,
      "stateMutability": "view",
      "type": "function"
    },
    {
      "constant": true,
      "inputs": [
        {
          "name": "txHash",
          "type": "string"
        }
      ],
      "name": "getTransaction",
      "outputs": [
        {
          "components": [
            {
              "name": "txHash",
              "type": "string"
            },
            {
              "name": "consumerAddress",
              "type": "address"
            },
            {
              "name": "sellerAddress",
              "type": "address"
            },
            {
              "name": "petId",
              "type": "uint256"
            }
          ],
          "name": "",
          "type": "tuple"
        }
      ],
      "payable": false,
      "stateMutability": "view",
      "type": "function"
    },
    {
      "constant": false,
      "inputs": [
        {
          "name": "txHash",
          "type": "string"
        },
        {
          "name": "consumerAddress",
          "type": "address"
        },
        {
          "name": "sellerAddress",
          "type": "address"
        },
        {
          "name": "petId",
          "type": "uint256"
        }
      ],
      "name": "createTransaction",
      "outputs": [],
      "payable": false,
      "stateMutability": "nonpayable",
      "type": "function"
    }
  ],
  "bytecode": "0x608060405234801561001057600080fd5b50615e7f80620000216000396000f300608060405260043610610112576000357c0100000000000000000000000000000000000000000000000000000000900463ffffffff168063013bd2ba14610117578063075e7fbc1461015457806317516f7a1461017d5780631baef3d4146101ba57806339f7e1bc146101e35780633c23cbb01461020c57806346419407146102355780634ceb48fd1461026057806359d55194146102895780636f77926b146102c65780639ebe1c6714610303578063a38b51261461032c578063ac2ccd0714610369578063b9cbcc5f146103a6578063cb2d637b146103e3578063d6a8e96d14610420578063d6f2c5a41461045d578063e8f824201461049a578063f1ec354a146104d7578063f54f229014610500575b600080fd5b34801561012357600080fd5b5061013e60048036036101399190810190614c4d565b61053d565b60405161014b9190615a67565b60405180910390f35b34801561016057600080fd5b5061017b60048036036101769190810190614c76565b6109d0565b005b34801561018957600080fd5b506101a4600480360361019f9190810190614c4d565b610c9b565b6040516101b19190615a45565b60405180910390f35b3480156101c657600080fd5b506101e160048036036101dc919081019061507f565b6114a4565b005b3480156101ef57600080fd5b5061020a60048036036102059190810190614f08565b6114c3565b005b34801561021857600080fd5b50610233600480360361022e9190810190615000565b611be4565b005b34801561024157600080fd5b5061024a611ee5565b6040516102579190615b55565b60405180910390f35b34801561026c57600080fd5b5061028760048036036102829190810190614d77565b611eee565b005b34801561029557600080fd5b506102b060048036036102ab9190810190614f83565b6120e0565b6040516102bd9190615aef565b60405180910390f35b3480156102d257600080fd5b506102ed60048036036102e89190810190614c4d565b61247e565b6040516102fa9190615b33565b60405180910390f35b34801561030f57600080fd5b5061032a60048036036103259190810190614df6565b6127b3565b005b34801561033857600080fd5b50610353600480360361034e9190810190614c4d565b6129ed565b6040516103609190615a01565b60405180910390f35b34801561037557600080fd5b50610390600480360361038b9190810190614ec7565b612b18565b60405161039d9190615b11565b60405180910390f35b3480156103b257600080fd5b506103cd60048036036103c89190810190614f83565b612cf6565b6040516103da9190615a89565b60405180910390f35b3480156103ef57600080fd5b5061040a60048036036104059190810190614f83565b612d64565b6040516104179190615a23565b60405180910390f35b34801561042c57600080fd5b5061044760048036036104429190810190614f83565b613c63565b6040516104549190615acd565b60405180910390f35b34801561046957600080fd5b50610484600480360361047f9190810190614f83565b614392565b6040516104919190615aab565b60405180910390f35b3480156104a657600080fd5b506104c160048036036104bc9190810190614f83565b61444a565b6040516104ce9190615aab565b60405180910390f35b3480156104e357600080fd5b506104fe60048036036104f99190810190614fac565b614541565b005b34801561050c57600080fd5b5061052760048036036105229190810190614c4d565b614570565b6040516105349190615a89565b60405180910390f35b6060600060606000600260008673ffffffffffffffffffffffffffffffffffffffff1673ffffffffffffffffffffffffffffffffffffffff1681526020019081526020016000206004019250600090505b82805490508110156109c55760008114156107b057600583828154811015156105b357fe5b9060005260206000200160405180828054600181600116156101000203166002900480156106185780601f106105f6576101008083540402835291820191610618565b820191906000526020600020905b815481529060010190602001808311610604575b5050915050908152602001604051809103902060806040519081016040529081600082018054600181600116156101000203166002900480601f0160208091040260200160405190810160405280929190818152602001828054600181600116156101000203166002900480156106d05780601f106106a5576101008083540402835291602001916106d0565b820191906000526020600020905b8154815290600101906020018083116106b357829003601f168201915b505050505081526020016001820160009054906101000a900473ffffffffffffffffffffffffffffffffffffffff1673ffffffffffffffffffffffffffffffffffffffff1673ffffffffffffffffffffffffffffffffffffffff1681526020016002820160009054906101000a900473ffffffffffffffffffffffffffffffffffffffff1673ffffffffffffffffffffffffffffffffffffffff1673ffffffffffffffffffffffffffffffffffffffff16815260200160038201548152505082600081518110151561079e57fe5b906020019060200201819052506109b8565b600583828154811015156107c057fe5b9060005260206000200160405180828054600181600116156101000203166002900480156108255780601f10610803576101008083540402835291820191610825565b820191906000526020600020905b815481529060010190602001808311610811575b5050915050908152602001604051809103902060806040519081016040529081600082018054600181600116156101000203166002900480601f0160208091040260200160405190810160405280929190818152602001828054600181600116156101000203166002900480156108dd5780601f106108b2576101008083540402835291602001916108dd565b820191906000526020600020905b8154815290600101906020018083116108c057829003601f168201915b505050505081526020016001820160009054906101000a900473ffffffffffffffffffffffffffffffffffffffff1673ffffffffffffffffffffffffffffffffffffffff1673ffffffffffffffffffffffffffffffffffffffff1681526020016002820160009054906101000a900473ffffffffffffffffffffffffffffffffffffffff1673ffffffffffffffffffffffffffffffffffffffff1673ffffffffffffffffffffffffffffffffffffffff16815260200160038201548152505082828151811015156109aa57fe5b906020019060200201819052505b808060010191505061058e565b819350505050919050565b60006109da61460a565b600091505b8651821015610c9157600080815480929190600101919050558160000181815250508682815181101515610a0f57fe5b9060200190602002015181602001819052508582815181101515610a2f57fe5b9060200190602002015181604001819052508482815181101515610a4f57fe5b9060200190602002015181606001819052508382815181101515610a6f57fe5b906020019060200201518160800190151590811515815250508282815181101515610a9657fe5b906020019060200201518160a0018181525050878160e0019073ffffffffffffffffffffffffffffffffffffffff16908173ffffffffffffffffffffffffffffffffffffffff1681525050806001600083600001518152602001908152602001600020600082015181600001556020820151816001019080519060200190610b1f929190614676565b506040820151816002019080519060200190610b3c929190614676565b506060820151816003019080519060200190610b59929190614676565b5060808201518160040160006101000a81548160ff02191690831515021790555060a0820151816005015560c0820151816006019080519060200190610ba0929190614676565b5060e08201518160070160006101000a81548173ffffffffffffffffffffffffffffffffffffffff021916908373ffffffffffffffffffffffffffffffffffffffff1602179055506101008201518160080155610120820151816009019080519060200190610c109291906146f6565b50905050600260008973ffffffffffffffffffffffffffffffffffffffff1673ffffffffffffffffffffffffffffffffffffffff1681526020019081526020016000206003018160000151908060018154018082558091505090600182039060005260206000200160009091929091909150555081806001019250506109df565b5050505050505050565b6060600060606000600260008673ffffffffffffffffffffffffffffffffffffffff1673ffffffffffffffffffffffffffffffffffffffff1681526020019081526020016000206003019250600090505b82805490508110156114995760008114156110c957600160008483815481101515610d1357fe5b90600052602060002001548152602001908152602001600020610140604051908101604052908160008201548152602001600182018054600181600116156101000203166002900480601f016020809104026020016040519081016040528092919081815260200182805460018160011615610100020316600290048015610ddc5780601f10610db157610100808354040283529160200191610ddc565b820191906000526020600020905b815481529060010190602001808311610dbf57829003601f168201915b50505050508152602001600282018054600181600116156101000203166002900480601f016020809104026020016040519081016040528092919081815260200182805460018160011615610100020316600290048015610e7e5780601f10610e5357610100808354040283529160200191610e7e565b820191906000526020600020905b815481529060010190602001808311610e6157829003601f168201915b50505050508152602001600382018054600181600116156101000203166002900480601f016020809104026020016040519081016040528092919081815260200182805460018160011615610100020316600290048015610f205780601f10610ef557610100808354040283529160200191610f20565b820191906000526020600020905b815481529060010190602001808311610f0357829003601f168201915b505050505081526020016004820160009054906101000a900460ff1615151515815260200160058201548152602001600682018054600181600116156101000203166002900480601f016020809104026020016040519081016040528092919081815260200182805460018160011615610100020316600290048015610fe75780601f10610fbc57610100808354040283529160200191610fe7565b820191906000526020600020905b815481529060010190602001808311610fca57829003601f168201915b505050505081526020016007820160009054906101000a900473ffffffffffffffffffffffffffffffffffffffff1673ffffffffffffffffffffffffffffffffffffffff1673ffffffffffffffffffffffffffffffffffffffff168152602001600882015481526020016009820180548060200260200160405190810160405280929190818152602001828054801561109f57602002820191906000526020600020905b81548152602001906001019080831161108b575b5050505050815250508260008151811015156110b757fe5b9060200190602002018190525061148c565b6001600084838154811015156110db57fe5b90600052602060002001548152602001908152602001600020610140604051908101604052908160008201548152602001600182018054600181600116156101000203166002900480601f0160208091040260200160405190810160405280929190818152602001828054600181600116156101000203166002900480156111a45780601f10611179576101008083540402835291602001916111a4565b820191906000526020600020905b81548152906001019060200180831161118757829003601f168201915b50505050508152602001600282018054600181600116156101000203166002900480601f0160208091040260200160405190810160405280929190818152602001828054600181600116156101000203166002900480156112465780601f1061121b57610100808354040283529160200191611246565b820191906000526020600020905b81548152906001019060200180831161122957829003601f168201915b50505050508152602001600382018054600181600116156101000203166002900480601f0160208091040260200160405190810160405280929190818152602001828054600181600116156101000203166002900480156112e85780601f106112bd576101008083540402835291602001916112e8565b820191906000526020600020905b8154815290600101906020018083116112cb57829003601f168201915b505050505081526020016004820160009054906101000a900460ff1615151515815260200160058201548152602001600682018054600181600116156101000203166002900480601f0160208091040260200160405190810160405280929190818152602001828054600181600116156101000203166002900480156113af5780601f10611384576101008083540402835291602001916113af565b820191906000526020600020905b81548152906001019060200180831161139257829003601f168201915b505050505081526020016007820160009054906101000a900473ffffffffffffffffffffffffffffffffffffffff1673ffffffffffffffffffffffffffffffffffffffff1673ffffffffffffffffffffffffffffffffffffffff168152602001600882015481526020016009820180548060200260200160405190810160405280929190818152602001828054801561146757602002820191906000526020600020905b815481526020019060010190808311611453575b505050505081525050828281518110151561147e57fe5b906020019060200201819052505b8080600101915050610cec565b819350505050919050565b8060016000848152602001908152602001600020600801819055505050565b6000806080604051908101604052808781526020018673ffffffffffffffffffffffffffffffffffffffff1681526020018573ffffffffffffffffffffffffffffffffffffffff168152602001848152506005876040518082805190602001908083835b60208310151561154c5780518252602082019150602081019050602083039250611527565b6001836020036101000a0380198251168184511680821785525050505050509050019150509081526020016040518091039020600082015181600001908051906020019061159b929190614676565b5060208201518160010160006101000a81548173ffffffffffffffffffffffffffffffffffffffff021916908373ffffffffffffffffffffffffffffffffffffffff16021790555060408201518160020160006101000a81548173ffffffffffffffffffffffffffffffffffffffff021916908373ffffffffffffffffffffffffffffffffffffffff16021790555060608201518160030155905050600260008673ffffffffffffffffffffffffffffffffffffffff1673ffffffffffffffffffffffffffffffffffffffff1681526020019081526020016000206004018690806001815401808255809150509060018203906000526020600020016000909192909190915090805190602001906116b4929190614743565b5050600260008573ffffffffffffffffffffffffffffffffffffffff1673ffffffffffffffffffffffffffffffffffffffff168152602001908152602001600020600401869080600181540180825580915050906001820390600052602060002001600090919290919091509080519060200190611733929190614743565b5050600260008673ffffffffffffffffffffffffffffffffffffffff1673ffffffffffffffffffffffffffffffffffffffff168152602001908152602001600020600301839080600181540180825580915050906001820390600052602060002001600090919290919091505550846001600085815260200190815260200160002060070160006101000a81548173ffffffffffffffffffffffffffffffffffffffff021916908373ffffffffffffffffffffffffffffffffffffffff160217905550600060016000858152602001908152602001600020600801819055506001600260008673ffffffffffffffffffffffffffffffffffffffff1673ffffffffffffffffffffffffffffffffffffffff16815260200190815260200160002060030180549050141561191957600260008573ffffffffffffffffffffffffffffffffffffffff1673ffffffffffffffffffffffffffffffffffffffff16815260200190815260200160002060030160008154811015156118b057fe5b9060005260206000200160009055600260008573ffffffffffffffffffffffffffffffffffffffff1673ffffffffffffffffffffffffffffffffffffffff16815260200190815260200160002060030180548091906001900361191391906147c3565b50611bdc565b600091505b600260008573ffffffffffffffffffffffffffffffffffffffff1673ffffffffffffffffffffffffffffffffffffffff16815260200190815260200160002060030180549050821015611bdb57600260008573ffffffffffffffffffffffffffffffffffffffff1673ffffffffffffffffffffffffffffffffffffffff168152602001908152602001600020600301828154811015156119ba57fe5b9060005260206000200154905082811415611bce57600260008573ffffffffffffffffffffffffffffffffffffffff1673ffffffffffffffffffffffffffffffffffffffff1681526020019081526020016000206003016001600260008773ffffffffffffffffffffffffffffffffffffffff1673ffffffffffffffffffffffffffffffffffffffff1681526020019081526020016000206003018054905003815481101515611a6657fe5b9060005260206000200154600260008673ffffffffffffffffffffffffffffffffffffffff1673ffffffffffffffffffffffffffffffffffffffff16815260200190815260200160002060030183815481101515611ac057fe5b9060005260206000200181905550600260008573ffffffffffffffffffffffffffffffffffffffff1673ffffffffffffffffffffffffffffffffffffffff1681526020019081526020016000206003016001600260008773ffffffffffffffffffffffffffffffffffffffff1673ffffffffffffffffffffffffffffffffffffffff1681526020019081526020016000206003018054905003815481101515611b6557fe5b9060005260206000200160009055600260008573ffffffffffffffffffffffffffffffffffffffff1673ffffffffffffffffffffffffffffffffffffffff168152602001908152602001600020600301805480919060019003611bc891906147c3565b50611bdb565b818060010192505061191e565b5b505050505050565b60006003600081548092919060010191905055905061018060405190810160405280828152602001848152602001836000815181101515611c2157fe5b906020019060200201518152602001836001815181101515611c3f57fe5b906020019060200201518152602001836002815181101515611c5d57fe5b906020019060200201518152602001836003815181101515611c7b57fe5b906020019060200201518152602001836004815181101515611c9957fe5b906020019060200201518152602001836005815181101515611cb757fe5b906020019060200201518152602001836006815181101515611cd557fe5b906020019060200201518152602001836007815181101515611cf357fe5b906020019060200201518152602001836008815181101515611d1157fe5b906020019060200201518152602001836009815181101515611d2f57fe5b9060200190602002015181525060046000838152602001908152602001600020600082015181600001556020820151816001019080519060200190611d75929190614676565b506040820151816002019080519060200190611d92929190614676565b506060820151816003019080519060200190611daf929190614676565b506080820151816004019080519060200190611dcc929190614676565b5060a0820151816005019080519060200190611de9929190614676565b5060c0820151816006019080519060200190611e06929190614676565b5060e0820151816007019080519060200190611e23929190614676565b50610100820151816008019080519060200190611e41929190614676565b50610120820151816009019080519060200190611e5f929190614676565b5061014082015181600a019080519060200190611e7d929190614676565b5061016082015181600b019080519060200190611e9b929190614676565b509050506001600085815260200190815260200160002060090181908060018154018082558091505090600182039060005260206000200160009091929091909150555050505050565b60008054905090565b611ef66147ef565b83816000019073ffffffffffffffffffffffffffffffffffffffff16908173ffffffffffffffffffffffffffffffffffffffff168152505080600260008673ffffffffffffffffffffffffffffffffffffffff1673ffffffffffffffffffffffffffffffffffffffff16815260200190815260200160002060008201518160000160006101000a81548173ffffffffffffffffffffffffffffffffffffffff021916908373ffffffffffffffffffffffffffffffffffffffff1602179055506020820151816001019080519060200190611fd1929190614676565b506040820151816002019080519060200190611fee929190614676565b50606082015181600301908051906020019061200b9291906146f6565b506080820151816004019080519060200190612028929190614835565b5090505082600260008673ffffffffffffffffffffffffffffffffffffffff1673ffffffffffffffffffffffffffffffffffffffff1681526020019081526020016000206001019080519060200190612082929190614743565b5081600260008673ffffffffffffffffffffffffffffffffffffffff1673ffffffffffffffffffffffffffffffffffffffff16815260200190815260200160002060020190805190602001906120d9929190614743565b5050505050565b6120e861460a565b60016000838152602001908152602001600020610140604051908101604052908160008201548152602001600182018054600181600116156101000203166002900480601f0160208091040260200160405190810160405280929190818152602001828054600181600116156101000203166002900480156121ab5780601f10612180576101008083540402835291602001916121ab565b820191906000526020600020905b81548152906001019060200180831161218e57829003601f168201915b50505050508152602001600282018054600181600116156101000203166002900480601f01602080910402602001604051908101604052809291908181526020018280546001816001161561010002031660029004801561224d5780601f106122225761010080835404028352916020019161224d565b820191906000526020600020905b81548152906001019060200180831161223057829003601f168201915b50505050508152602001600382018054600181600116156101000203166002900480601f0160208091040260200160405190810160405280929190818152602001828054600181600116156101000203166002900480156122ef5780601f106122c4576101008083540402835291602001916122ef565b820191906000526020600020905b8154815290600101906020018083116122d257829003601f168201915b505050505081526020016004820160009054906101000a900460ff1615151515815260200160058201548152602001600682018054600181600116156101000203166002900480601f0160208091040260200160405190810160405280929190818152602001828054600181600116156101000203166002900480156123b65780601f1061238b576101008083540402835291602001916123b6565b820191906000526020600020905b81548152906001019060200180831161239957829003601f168201915b505050505081526020016007820160009054906101000a900473ffffffffffffffffffffffffffffffffffffffff1673ffffffffffffffffffffffffffffffffffffffff1673ffffffffffffffffffffffffffffffffffffffff168152602001600882015481526020016009820180548060200260200160405190810160405280929190818152602001828054801561246e57602002820191906000526020600020905b81548152602001906001019080831161245a575b5050505050815250509050919050565b6124866147ef565b600260008373ffffffffffffffffffffffffffffffffffffffff1673ffffffffffffffffffffffffffffffffffffffff16815260200190815260200160002060a060405190810160405290816000820160009054906101000a900473ffffffffffffffffffffffffffffffffffffffff1673ffffffffffffffffffffffffffffffffffffffff1673ffffffffffffffffffffffffffffffffffffffff168152602001600182018054600181600116156101000203166002900480601f0160208091040260200160405190810160405280929190818152602001828054600181600116156101000203166002900480156125c05780601f10612595576101008083540402835291602001916125c0565b820191906000526020600020905b8154815290600101906020018083116125a357829003601f168201915b50505050508152602001600282018054600181600116156101000203166002900480601f0160208091040260200160405190810160405280929190818152602001828054600181600116156101000203166002900480156126625780601f1061263757610100808354040283529160200191612662565b820191906000526020600020905b81548152906001019060200180831161264557829003601f168201915b50505050508152602001600382018054806020026020016040519081016040528092919081815260200182805480156126ba57602002820191906000526020600020905b8154815260200190600101908083116126a6575b5050505050815260200160048201805480602002602001604051908101604052809291908181526020016000905b828210156127a4578382906000526020600020018054600181600116156101000203166002900480601f0160208091040260200160405190810160405280929190818152602001828054600181600116156101000203166002900480156127905780601f1061276557610100808354040283529160200191612790565b820191906000526020600020905b81548152906001019060200180831161277357829003601f168201915b5050505050815260200190600101906126e8565b50505050815250509050919050565b6127bb61460a565b6000808154809291906001019190505581600001818152505085816020018190525084816040018190525083816060018190525082816080019015159081151581525050818160a0018181525050868160e0019073ffffffffffffffffffffffffffffffffffffffff16908173ffffffffffffffffffffffffffffffffffffffff168152505080600160008360000151815260200190815260200160002060008201518160000155602082015181600101908051906020019061287f929190614676565b50604082015181600201908051906020019061289c929190614676565b5060608201518160030190805190602001906128b9929190614676565b5060808201518160040160006101000a81548160ff02191690831515021790555060a0820151816005015560c0820151816006019080519060200190612900929190614676565b5060e08201518160070160006101000a81548173ffffffffffffffffffffffffffffffffffffffff021916908373ffffffffffffffffffffffffffffffffffffffff16021790555061010082015181600801556101208201518160090190805190602001906129709291906146f6565b50905050600260008873ffffffffffffffffffffffffffffffffffffffff1673ffffffffffffffffffffffffffffffffffffffff1681526020019081526020016000206003018160000151908060018154018082558091505090600182039060005260206000200160009091929091909150555050505050505050565b6060600260008373ffffffffffffffffffffffffffffffffffffffff1673ffffffffffffffffffffffffffffffffffffffff168152602001908152602001600020600401805480602002602001604051908101604052809291908181526020016000905b82821015612b0d578382906000526020600020018054600181600116156101000203166002900480601f016020809104026020016040519081016040528092919081815260200182805460018160011615610100020316600290048015612af95780601f10612ace57610100808354040283529160200191612af9565b820191906000526020600020905b815481529060010190602001808311612adc57829003601f168201915b505050505081526020019060010190612a51565b505050509050919050565b612b20614895565b6005826040518082805190602001908083835b602083101515612b585780518252602082019150602081019050602083039250612b33565b6001836020036101000a038019825116818451168082178552505050505050905001915050908152602001604051809103902060806040519081016040529081600082018054600181600116156101000203166002900480601f016020809104026020016040519081016040528092919081815260200182805460018160011615610100020316600290048015612c305780601f10612c0557610100808354040283529160200191612c30565b820191906000526020600020905b815481529060010190602001808311612c1357829003601f168201915b505050505081526020016001820160009054906101000a900473ffffffffffffffffffffffffffffffffffffffff1673ffffffffffffffffffffffffffffffffffffffff1673ffffffffffffffffffffffffffffffffffffffff1681526020016002820160009054906101000a900473ffffffffffffffffffffffffffffffffffffffff1673ffffffffffffffffffffffffffffffffffffffff1673ffffffffffffffffffffffffffffffffffffffff1681526020016003820154815250509050919050565b606060016000838152602001908152602001600020600901805480602002602001604051908101604052809291908181526020018280548015612d5857602002820191906000526020600020905b815481526020019060010190808311612d44575b50505050509050919050565b6060600060606000600160008681526020019081526020016000206009019250600090505b8280549050811015613c585760008114156134f757600460008483815481101515612db057fe5b90600052602060002001548152602001908152602001600020610180604051908101604052908160008201548152602001600182018054600181600116156101000203166002900480601f016020809104026020016040519081016040528092919081815260200182805460018160011615610100020316600290048015612e795780601f10612e4e57610100808354040283529160200191612e79565b820191906000526020600020905b815481529060010190602001808311612e5c57829003601f168201915b50505050508152602001600282018054600181600116156101000203166002900480601f016020809104026020016040519081016040528092919081815260200182805460018160011615610100020316600290048015612f1b5780601f10612ef057610100808354040283529160200191612f1b565b820191906000526020600020905b815481529060010190602001808311612efe57829003601f168201915b50505050508152602001600382018054600181600116156101000203166002900480601f016020809104026020016040519081016040528092919081815260200182805460018160011615610100020316600290048015612fbd5780601f10612f9257610100808354040283529160200191612fbd565b820191906000526020600020905b815481529060010190602001808311612fa057829003601f168201915b50505050508152602001600482018054600181600116156101000203166002900480601f01602080910402602001604051908101604052809291908181526020018280546001816001161561010002031660029004801561305f5780601f106130345761010080835404028352916020019161305f565b820191906000526020600020905b81548152906001019060200180831161304257829003601f168201915b50505050508152602001600582018054600181600116156101000203166002900480601f0160208091040260200160405190810160405280929190818152602001828054600181600116156101000203166002900480156131015780601f106130d657610100808354040283529160200191613101565b820191906000526020600020905b8154815290600101906020018083116130e457829003601f168201915b50505050508152602001600682018054600181600116156101000203166002900480601f0160208091040260200160405190810160405280929190818152602001828054600181600116156101000203166002900480156131a35780601f10613178576101008083540402835291602001916131a3565b820191906000526020600020905b81548152906001019060200180831161318657829003601f168201915b50505050508152602001600782018054600181600116156101000203166002900480601f0160208091040260200160405190810160405280929190818152602001828054600181600116156101000203166002900480156132455780601f1061321a57610100808354040283529160200191613245565b820191906000526020600020905b81548152906001019060200180831161322857829003601f168201915b50505050508152602001600882018054600181600116156101000203166002900480601f0160208091040260200160405190810160405280929190818152602001828054600181600116156101000203166002900480156132e75780601f106132bc576101008083540402835291602001916132e7565b820191906000526020600020905b8154815290600101906020018083116132ca57829003601f168201915b50505050508152602001600982018054600181600116156101000203166002900480601f0160208091040260200160405190810160405280929190818152602001828054600181600116156101000203166002900480156133895780601f1061335e57610100808354040283529160200191613389565b820191906000526020600020905b81548152906001019060200180831161336c57829003601f168201915b50505050508152602001600a82018054600181600116156101000203166002900480601f01602080910402602001604051908101604052809291908181526020018280546001816001161561010002031660029004801561342b5780601f106134005761010080835404028352916020019161342b565b820191906000526020600020905b81548152906001019060200180831161340e57829003601f168201915b50505050508152602001600b82018054600181600116156101000203166002900480601f0160208091040260200160405190810160405280929190818152602001828054600181600116156101000203166002900480156134cd5780601f106134a2576101008083540402835291602001916134cd565b820191906000526020600020905b8154815290600101906020018083116134b057829003601f168201915b5050505050815250508260008151811015156134e557fe5b90602001906020020181905250613c4b565b60046000848381548110151561350957fe5b90600052602060002001548152602001908152602001600020610180604051908101604052908160008201548152602001600182018054600181600116156101000203166002900480601f0160208091040260200160405190810160405280929190818152602001828054600181600116156101000203166002900480156135d25780601f106135a7576101008083540402835291602001916135d2565b820191906000526020600020905b8154815290600101906020018083116135b557829003601f168201915b50505050508152602001600282018054600181600116156101000203166002900480601f0160208091040260200160405190810160405280929190818152602001828054600181600116156101000203166002900480156136745780601f1061364957610100808354040283529160200191613674565b820191906000526020600020905b81548152906001019060200180831161365757829003601f168201915b50505050508152602001600382018054600181600116156101000203166002900480601f0160208091040260200160405190810160405280929190818152602001828054600181600116156101000203166002900480156137165780601f106136eb57610100808354040283529160200191613716565b820191906000526020600020905b8154815290600101906020018083116136f957829003601f168201915b50505050508152602001600482018054600181600116156101000203166002900480601f0160208091040260200160405190810160405280929190818152602001828054600181600116156101000203166002900480156137b85780601f1061378d576101008083540402835291602001916137b8565b820191906000526020600020905b81548152906001019060200180831161379b57829003601f168201915b50505050508152602001600582018054600181600116156101000203166002900480601f01602080910402602001604051908101604052809291908181526020018280546001816001161561010002031660029004801561385a5780601f1061382f5761010080835404028352916020019161385a565b820191906000526020600020905b81548152906001019060200180831161383d57829003601f168201915b50505050508152602001600682018054600181600116156101000203166002900480601f0160208091040260200160405190810160405280929190818152602001828054600181600116156101000203166002900480156138fc5780601f106138d1576101008083540402835291602001916138fc565b820191906000526020600020905b8154815290600101906020018083116138df57829003601f168201915b50505050508152602001600782018054600181600116156101000203166002900480601f01602080910402602001604051908101604052809291908181526020018280546001816001161561010002031660029004801561399e5780601f106139735761010080835404028352916020019161399e565b820191906000526020600020905b81548152906001019060200180831161398157829003601f168201915b50505050508152602001600882018054600181600116156101000203166002900480601f016020809104026020016040519081016040528092919081815260200182805460018160011615610100020316600290048015613a405780601f10613a1557610100808354040283529160200191613a40565b820191906000526020600020905b815481529060010190602001808311613a2357829003601f168201915b50505050508152602001600982018054600181600116156101000203166002900480601f016020809104026020016040519081016040528092919081815260200182805460018160011615610100020316600290048015613ae25780601f10613ab757610100808354040283529160200191613ae2565b820191906000526020600020905b815481529060010190602001808311613ac557829003601f168201915b50505050508152602001600a82018054600181600116156101000203166002900480601f016020809104026020016040519081016040528092919081815260200182805460018160011615610100020316600290048015613b845780601f10613b5957610100808354040283529160200191613b84565b820191906000526020600020905b815481529060010190602001808311613b6757829003601f168201915b50505050508152602001600b82018054600181600116156101000203166002900480601f016020809104026020016040519081016040528092919081815260200182805460018160011615610100020316600290048015613c265780601f10613bfb57610100808354040283529160200191613c26565b820191906000526020600020905b815481529060010190602001808311613c0957829003601f168201915b5050505050815250508282815181101515613c3d57fe5b906020019060200201819052505b8080600101915050612d89565b819350505050919050565b613c6b6148ea565b60046000838152602001908152602001600020610180604051908101604052908160008201548152602001600182018054600181600116156101000203166002900480601f016020809104026020016040519081016040528092919081815260200182805460018160011615610100020316600290048015613d2e5780601f10613d0357610100808354040283529160200191613d2e565b820191906000526020600020905b815481529060010190602001808311613d1157829003601f168201915b50505050508152602001600282018054600181600116156101000203166002900480601f016020809104026020016040519081016040528092919081815260200182805460018160011615610100020316600290048015613dd05780601f10613da557610100808354040283529160200191613dd0565b820191906000526020600020905b815481529060010190602001808311613db357829003601f168201915b50505050508152602001600382018054600181600116156101000203166002900480601f016020809104026020016040519081016040528092919081815260200182805460018160011615610100020316600290048015613e725780601f10613e4757610100808354040283529160200191613e72565b820191906000526020600020905b815481529060010190602001808311613e5557829003601f168201915b50505050508152602001600482018054600181600116156101000203166002900480601f016020809104026020016040519081016040528092919081815260200182805460018160011615610100020316600290048015613f145780601f10613ee957610100808354040283529160200191613f14565b820191906000526020600020905b815481529060010190602001808311613ef757829003601f168201915b50505050508152602001600582018054600181600116156101000203166002900480601f016020809104026020016040519081016040528092919081815260200182805460018160011615610100020316600290048015613fb65780601f10613f8b57610100808354040283529160200191613fb6565b820191906000526020600020905b815481529060010190602001808311613f9957829003601f168201915b50505050508152602001600682018054600181600116156101000203166002900480601f0160208091040260200160405190810160405280929190818152602001828054600181600116156101000203166002900480156140585780601f1061402d57610100808354040283529160200191614058565b820191906000526020600020905b81548152906001019060200180831161403b57829003601f168201915b50505050508152602001600782018054600181600116156101000203166002900480601f0160208091040260200160405190810160405280929190818152602001828054600181600116156101000203166002900480156140fa5780601f106140cf576101008083540402835291602001916140fa565b820191906000526020600020905b8154815290600101906020018083116140dd57829003601f168201915b50505050508152602001600882018054600181600116156101000203166002900480601f01602080910402602001604051908101604052809291908181526020018280546001816001161561010002031660029004801561419c5780601f106141715761010080835404028352916020019161419c565b820191906000526020600020905b81548152906001019060200180831161417f57829003601f168201915b50505050508152602001600982018054600181600116156101000203166002900480601f01602080910402602001604051908101604052809291908181526020018280546001816001161561010002031660029004801561423e5780601f106142135761010080835404028352916020019161423e565b820191906000526020600020905b81548152906001019060200180831161422157829003601f168201915b50505050508152602001600a82018054600181600116156101000203166002900480601f0160208091040260200160405190810160405280929190818152602001828054600181600116156101000203166002900480156142e05780601f106142b5576101008083540402835291602001916142e0565b820191906000526020600020905b8154815290600101906020018083116142c357829003601f168201915b50505050508152602001600b82018054600181600116156101000203166002900480601f0160208091040260200160405190810160405280929190818152602001828054600181600116156101000203166002900480156143825780601f1061435757610100808354040283529160200191614382565b820191906000526020600020905b81548152906001019060200180831161436557829003601f168201915b5050505050815250509050919050565b6060600160008381526020019081526020016000206006018054600181600116156101000203166002900480601f01602080910402602001604051908101604052809291908181526020018280546001816001161561010002031660029004801561443e5780601f106144135761010080835404028352916020019161443e565b820191906000526020600020905b81548152906001019060200180831161442157829003601f168201915b50505050509050919050565b606060008060016000858152602001908152602001600020600901915081600183805490500381548110151561447c57fe5b90600052602060002001549050600460008281526020019081526020016000206001018054600181600116156101000203166002900480601f0160208091040260200160405190810160405280929190818152602001828054600181600116156101000203166002900480156145335780601f1061450857610100808354040283529160200191614533565b820191906000526020600020905b81548152906001019060200180831161451657829003601f168201915b505050505092505050919050565b8060016000848152602001908152602001600020600601908051906020019061456b929190614743565b505050565b6060600260008373ffffffffffffffffffffffffffffffffffffffff1673ffffffffffffffffffffffffffffffffffffffff1681526020019081526020016000206003018054806020026020016040519081016040528092919081815260200182805480156145fe57602002820191906000526020600020905b8154815260200190600101908083116145ea575b50505050509050919050565b61014060405190810160405280600081526020016060815260200160608152602001606081526020016000151581526020016000815260200160608152602001600073ffffffffffffffffffffffffffffffffffffffff16815260200160008152602001606081525090565b828054600181600116156101000203166002900490600052602060002090601f016020900481019282601f106146b757805160ff19168380011785556146e5565b828001600101855582156146e5579182015b828111156146e45782518255916020019190600101906146c9565b5b5090506146f2919061494c565b5090565b828054828255906000526020600020908101928215614732579160200282015b82811115614731578251825591602001919060010190614716565b5b50905061473f919061494c565b5090565b828054600181600116156101000203166002900490600052602060002090601f016020900481019282601f1061478457805160ff19168380011785556147b2565b828001600101855582156147b2579182015b828111156147b1578251825591602001919060010190614796565b5b5090506147bf919061494c565b5090565b8154818355818111156147ea578183600052602060002091820191016147e9919061494c565b5b505050565b60a060405190810160405280600073ffffffffffffffffffffffffffffffffffffffff168152602001606081526020016060815260200160608152602001606081525090565b828054828255906000526020600020908101928215614884579160200282015b82811115614883578251829080519060200190614873929190614676565b5091602001919060010190614855565b5b5090506148919190614971565b5090565b60806040519081016040528060608152602001600073ffffffffffffffffffffffffffffffffffffffff168152602001600073ffffffffffffffffffffffffffffffffffffffff168152602001600081525090565b610180604051908101604052806000815260200160608152602001606081526020016060815260200160608152602001606081526020016060815260200160608152602001606081526020016060815260200160608152602001606081525090565b61496e91905b8082111561496a576000816000905550600101614952565b5090565b90565b61499a91905b80821115614996576000818161498d919061499d565b50600101614977565b5090565b90565b50805460018160011615610100020316600290046000825580601f106149c357506149e2565b601f0160209004906000526020600020908101906149e1919061494c565b5b50565b60006149f18235615dbc565b905092915050565b600082601f8301121515614a0c57600080fd5b8135614a1f614a1a82615b9d565b615b70565b91508181835260208401935060208101905083856020840282011115614a4457600080fd5b60005b83811015614a745781614a5a8882614b79565b845260208401935060208301925050600181019050614a47565b5050505092915050565b600082601f8301121515614a9157600080fd5b8135614aa4614a9f82615bc5565b615b70565b9150818183526020840193506020810190508360005b83811015614aea5781358601614ad08882614b8d565b845260208401935060208301925050600181019050614aba565b5050505092915050565b600082601f8301121515614b0757600080fd5b8135614b1a614b1582615bed565b615b70565b91508181835260208401935060208101905083856020840282011115614b3f57600080fd5b60005b83811015614b6f5781614b558882614c39565b845260208401935060208301925050600181019050614b42565b5050505092915050565b6000614b858235615ddc565b905092915050565b600082601f8301121515614ba057600080fd5b8135614bb3614bae82615c15565b615b70565b91508082526020830160208301858383011115614bcf57600080fd5b614bda838284615df2565b50505092915050565b600082601f8301121515614bf657600080fd5b8135614c09614c0482615c41565b615b70565b91508082526020830160208301858383011115614c2557600080fd5b614c30838284615df2565b50505092915050565b6000614c458235615de8565b905092915050565b600060208284031215614c5f57600080fd5b6000614c6d848285016149e5565b91505092915050565b60008060008060008060c08789031215614c8f57600080fd5b6000614c9d89828a016149e5565b965050602087013567ffffffffffffffff811115614cba57600080fd5b614cc689828a01614a7e565b955050604087013567ffffffffffffffff811115614ce357600080fd5b614cef89828a01614a7e565b945050606087013567ffffffffffffffff811115614d0c57600080fd5b614d1889828a01614a7e565b935050608087013567ffffffffffffffff811115614d3557600080fd5b614d4189828a016149f9565b92505060a087013567ffffffffffffffff811115614d5e57600080fd5b614d6a89828a01614af4565b9150509295509295509295565b600080600060608486031215614d8c57600080fd5b6000614d9a868287016149e5565b935050602084013567ffffffffffffffff811115614db757600080fd5b614dc386828701614be3565b925050604084013567ffffffffffffffff811115614de057600080fd5b614dec86828701614be3565b9150509250925092565b60008060008060008060c08789031215614e0f57600080fd5b6000614e1d89828a016149e5565b965050602087013567ffffffffffffffff811115614e3a57600080fd5b614e4689828a01614be3565b955050604087013567ffffffffffffffff811115614e6357600080fd5b614e6f89828a01614be3565b945050606087013567ffffffffffffffff811115614e8c57600080fd5b614e9889828a01614be3565b9350506080614ea989828a01614b79565b92505060a0614eba89828a01614c39565b9150509295509295509295565b600060208284031215614ed957600080fd5b600082013567ffffffffffffffff811115614ef357600080fd5b614eff84828501614be3565b91505092915050565b60008060008060808587031215614f1e57600080fd5b600085013567ffffffffffffffff811115614f3857600080fd5b614f4487828801614be3565b9450506020614f55878288016149e5565b9350506040614f66878288016149e5565b9250506060614f7787828801614c39565b91505092959194509250565b600060208284031215614f9557600080fd5b6000614fa384828501614c39565b91505092915050565b60008060408385031215614fbf57600080fd5b6000614fcd85828601614c39565b925050602083013567ffffffffffffffff811115614fea57600080fd5b614ff685828601614be3565b9150509250929050565b60008060006060848603121561501557600080fd5b600061502386828701614c39565b935050602084013567ffffffffffffffff81111561504057600080fd5b61504c86828701614be3565b925050604084013567ffffffffffffffff81111561506957600080fd5b61507586828701614a7e565b9150509250925092565b6000806040838503121561509257600080fd5b60006150a085828601614c39565b92505060206150b185828601614c39565b9150509250929050565b6150c481615d86565b82525050565b60006150d582615cd3565b808452602084019350836020820285016150ee85615c7a565b60005b848110156151275783830388526151098383516153eb565b925061511482615d38565b91506020880197506001810190506150f1565b508196508694505050505092915050565b600061514382615cc8565b8084526020840193508360208202850161515c85615c6d565b60005b848110156151955783830388526151778383516153eb565b925061518282615d2b565b915060208801975060018101905061515f565b508196508694505050505092915050565b60006151b182615cde565b808452602084019350836020820285016151ca85615c87565b60005b848110156152035783830388526151e583835161556b565b92506151f082615d45565b91506020880197506001810190506151cd565b508196508694505050505092915050565b600061521f82615ce9565b8084526020840193508360208202850161523885615c94565b60005b848110156152715783830388526152538383516157ab565b925061525e82615d52565b915060208801975060018101905061523b565b508196508694505050505092915050565b600061528d82615cf4565b808452602084019350836020820285016152a685615ca1565b60005b848110156152df5783830388526152c1838351615904565b92506152cc82615d5f565b91506020880197506001810190506152a9565b508196508694505050505092915050565b60006152fb82615d0a565b80845260208401935061530d83615cbb565b60005b8281101561533f576153238683516159f2565b61532c82615d79565b9150602086019550600181019050615310565b50849250505092915050565b600061535682615cff565b80845260208401935061536883615cae565b60005b8281101561539a5761537e8683516159f2565b61538782615d6c565b915060208601955060018101905061536b565b50849250505092915050565b6153af81615da6565b82525050565b60006153c082615d20565b8084526153d4816020860160208601615e01565b6153dd81615e34565b602085010191505092915050565b60006153f682615d15565b80845261540a816020860160208601615e01565b61541381615e34565b602085010191505092915050565b60006101808301600083015161543a60008601826159f2565b506020830151848203602086015261545282826153eb565b9150506040830151848203604086015261546c82826153eb565b9150506060830151848203606086015261548682826153eb565b915050608083015184820360808601526154a082826153eb565b91505060a083015184820360a08601526154ba82826153eb565b91505060c083015184820360c08601526154d482826153eb565b91505060e083015184820360e08601526154ee82826153eb565b91505061010083015184820361010086015261550a82826153eb565b91505061012083015184820361012086015261552682826153eb565b91505061014083015184820361014086015261554282826153eb565b91505061016083015184820361016086015261555e82826153eb565b9150508091505092915050565b60006101808301600083015161558460008601826159f2565b506020830151848203602086015261559c82826153eb565b915050604083015184820360408601526155b682826153eb565b915050606083015184820360608601526155d082826153eb565b915050608083015184820360808601526155ea82826153eb565b91505060a083015184820360a086015261560482826153eb565b91505060c083015184820360c086015261561e82826153eb565b91505060e083015184820360e086015261563882826153eb565b91505061010083015184820361010086015261565482826153eb565b91505061012083015184820361012086015261567082826153eb565b91505061014083015184820361014086015261568c82826153eb565b9150506101608301518482036101608601526156a882826153eb565b9150508091505092915050565b6000610140830160008301516156ce60008601826159f2565b50602083015184820360208601526156e682826153eb565b9150506040830151848203604086015261570082826153eb565b9150506060830151848203606086015261571a82826153eb565b915050608083015161572f60808601826153a6565b5060a083015161574260a08601826159f2565b5060c083015184820360c086015261575a82826153eb565b91505060e083015161576f60e08601826150bb565b506101008301516157846101008601826159f2565b5061012083015184820361012086015261579e828261534b565b9150508091505092915050565b6000610140830160008301516157c460008601826159f2565b50602083015184820360208601526157dc82826153eb565b915050604083015184820360408601526157f682826153eb565b9150506060830151848203606086015261581082826153eb565b915050608083015161582560808601826153a6565b5060a083015161583860a08601826159f2565b5060c083015184820360c086015261585082826153eb565b91505060e083015161586560e08601826150bb565b5061010083015161587a6101008601826159f2565b50610120830151848203610120860152615894828261534b565b9150508091505092915050565b600060808301600083015184820360008601526158be82826153eb565b91505060208301516158d360208601826150bb565b5060408301516158e660408601826150bb565b5060608301516158f960608601826159f2565b508091505092915050565b6000608083016000830151848203600086015261592182826153eb565b915050602083015161593660208601826150bb565b50604083015161594960408601826150bb565b50606083015161595c60608601826159f2565b508091505092915050565b600060a08301600083015161597f60008601826150bb565b506020830151848203602086015261599782826153eb565b915050604083015184820360408601526159b182826153eb565b915050606083015184820360608601526159cb828261534b565b915050608083015184820360808601526159e58282615138565b9150508091505092915050565b6159fb81615db2565b82525050565b60006020820190508181036000830152615a1b81846150ca565b905092915050565b60006020820190508181036000830152615a3d81846151a6565b905092915050565b60006020820190508181036000830152615a5f8184615214565b905092915050565b60006020820190508181036000830152615a818184615282565b905092915050565b60006020820190508181036000830152615aa381846152f0565b905092915050565b60006020820190508181036000830152615ac581846153b5565b905092915050565b60006020820190508181036000830152615ae78184615421565b905092915050565b60006020820190508181036000830152615b0981846156b5565b905092915050565b60006020820190508181036000830152615b2b81846158a1565b905092915050565b60006020820190508181036000830152615b4d8184615967565b905092915050565b6000602082019050615b6a60008301846159f2565b92915050565b6000604051905081810181811067ffffffffffffffff82111715615b9357600080fd5b8060405250919050565b600067ffffffffffffffff821115615bb457600080fd5b602082029050602081019050919050565b600067ffffffffffffffff821115615bdc57600080fd5b602082029050602081019050919050565b600067ffffffffffffffff821115615c0457600080fd5b602082029050602081019050919050565b600067ffffffffffffffff821115615c2c57600080fd5b601f19601f8301169050602081019050919050565b600067ffffffffffffffff821115615c5857600080fd5b601f19601f8301169050602081019050919050565b6000602082019050919050565b6000602082019050919050565b6000602082019050919050565b6000602082019050919050565b6000602082019050919050565b6000602082019050919050565b6000602082019050919050565b600081519050919050565b600081519050919050565b600081519050919050565b600081519050919050565b600081519050919050565b600081519050919050565b600081519050919050565b600081519050919050565b600081519050919050565b6000602082019050919050565b6000602082019050919050565b6000602082019050919050565b6000602082019050919050565b6000602082019050919050565b6000602082019050919050565b6000602082019050919050565b600073ffffffffffffffffffffffffffffffffffffffff82169050919050565b60008115159050919050565b6000819050919050565b600073ffffffffffffffffffffffffffffffffffffffff82169050919050565b60008115159050919050565b6000819050919050565b82818337600083830152505050565b60005b83811015615e1f578082015181840152602081019050615e04565b83811115615e2e576000848401525b50505050565b6000601f19601f83011690509190505600a265627a7a72305820201a2b48fce971194a35f10e11c9d03f4cc80d75267165ce503436ded6ff1e736c6578706572696d656e74616cf50037",
  "source": "pragma solidity 0.4.25;\r\npragma experimental ABIEncoderV2;\r\n\r\ncontract PetMarketSystem {\r\n\r\n    struct User{\r\n        address userAddress; //   \r\n        string bId; // id\r\n        string bPw; // pw\r\n        uint[] petIds; // id \r\n        string[] txHashs; // \r\n    }\r\n\r\n    struct Pet{\r\n        uint id; //\r\n        string name; //\r\n        string breed; //\r\n        string birthday; //\r\n        bool sex; //(t/f)\r\n        uint weightKg; //\r\n        string noseHash; // \r\n\r\n        address owner;\r\n        uint price; //\r\n\r\n        uint[] dailyDataIds; //  id \r\n    }\r\n\r\n    struct DailyData {\r\n        uint id;//\r\n        string date;//\r\n        string sun;\r\n        string uv;\r\n        string vit;\r\n        string act;\r\n        string play;\r\n        string rest;\r\n        string cal;\r\n        string bark;\r\n        string dep;\r\n        string lux;\r\n    }\r\n    \r\n    struct Transaction{\r\n        string txHash; // \r\n        address consumerAddress; // address\r\n        address sellerAddress; // address\r\n        uint petId; //  \r\n    }\r\n\r\n    \r\n\r\n    uint numPets; //    \r\n    mapping (uint => Pet) pets; //  (, )\r\n\r\n    mapping (address => User) users;// (address, )\r\n\r\n    uint numDailyData; //     \r\n    mapping (uint => DailyData) dailyDatas; //   (,  )\r\n\r\n    mapping (string => Transaction) transactions; //  (txHash, Transaction)\r\n\r\n    //#  \r\n    function createUser(address _userAddress, string memory _bId, string memory _bPw) public {\r\n        User memory user;\r\n        user.userAddress = _userAddress;\r\n        users[_userAddress] = user;\r\n        users[_userAddress].bId = _bId;\r\n        users[_userAddress].bPw = _bPw;\r\n    }\r\n\r\n    //#get \r\n    function getUser(address _userAddress) public view returns (User memory){\r\n        return users[_userAddress];\r\n    }\r\n\r\n    //#  ID \r\n    function getPetIdsOfUser(address _userAddress) public view returns (uint[] memory){\r\n        return users[_userAddress].petIds; \r\n    }\r\n\r\n    //#  \r\n    function getPetOfUser(address _userAddress)public view returns (Pet[] memory){\r\n        uint[] storage ids = users[_userAddress].petIds;\r\n        Pet[] memory userPets;\r\n        for(uint i=0; i<ids.length; i++){\r\n            if(i==0)\r\n                userPets[0]=pets[ids[i]];\r\n            else\r\n                userPets[i]=(pets[ids[i]]);\r\n        } \r\n        return userPets;\r\n    }\r\n\r\n    //#  \r\n    function getTxHashsOfUser(address _userAddress)public view returns (string[] memory){\r\n        return users[_userAddress].txHashs; \r\n    }\r\n\r\n    //#  \r\n    function getTransactionOfUser(address _userAddress)public view returns (Transaction[] memory){\r\n        string[] storage txHashs = users[_userAddress].txHashs;\r\n        Transaction[] memory userTransactions;\r\n        for(uint i=0; i<txHashs.length; i++){\r\n            if(i==0)\r\n                userTransactions[0]=transactions[txHashs[i]];\r\n            else\r\n                userTransactions[i] = (transactions[txHashs[i]]);\r\n        } \r\n        return userTransactions;\r\n    }\r\n\r\n    //# \r\n    function createPet(address userAddress, string memory _name, string memory _breed, string memory _birthday, bool _sex, uint _weightKg) public {\r\n        Pet memory pet;\r\n        pet.id = numPets++;\r\n        pet.name = _name;\r\n        pet.breed = _breed;\r\n        pet.birthday = _birthday;\r\n        pet.sex = _sex;\r\n        pet.weightKg = _weightKg;\r\n        pet.owner = userAddress;\r\n\r\n        pets[pet.id] = pet;\r\n        users[userAddress].petIds.push(pet.id);\r\n    }\r\n\r\n    function createPets(address userAddress, string[] _name, string[] _breed, string[] _birthday, bool[] _sex, uint[] _weightKg) public {\r\n        for(uint i=0; i<_name.length; i++){\r\n            Pet memory pet;\r\n            pet.id = numPets++;\r\n            pet.name = _name[i];\r\n            pet.breed = _breed[i];\r\n            pet.birthday = _birthday[i];\r\n            pet.sex = _sex[i];\r\n            pet.weightKg = _weightKg[i];\r\n            pet.owner = userAddress;\r\n\r\n            pets[pet.id] = pet;\r\n            users[userAddress].petIds.push(pet.id);\r\n        }\r\n    }\r\n\r\n    //#  \r\n    function registerPetPrice(uint petId, uint _price) public{\r\n        pets[petId].price = _price;\r\n    }\r\n\r\n    //  return\r\n    function getNumPets() public view returns (uint){\r\n        return numPets;\r\n    }\r\n\r\n    //#get  \r\n    function getPet(uint petId)public view returns (Pet memory){\r\n        return pets[petId]; \r\n    }\r\n\r\n    //#get     \r\n    function getLastDateOfDailyDataOfPet(uint petId) public view returns(string memory){\r\n        uint[] storage ids = pets[petId].dailyDataIds;\r\n        uint lastId = ids[ids.length-1];\r\n        return dailyDatas[lastId].date; \r\n    }\r\n\r\n    //#get  id \r\n    function getDailyDataIdsOfPet(uint petId)public view returns (uint[] memory){\r\n        return pets[petId].dailyDataIds;\r\n    }\r\n\r\n    //#get   \r\n    function getDailyDataOfPet(uint petId)public view returns (DailyData[] memory){\r\n        uint[] storage ids = pets[petId].dailyDataIds;\r\n        DailyData[] memory petDailyDatas;\r\n        for(uint i=0; i<ids.length; i++){\r\n            if(i==0)\r\n                petDailyDatas[0]=dailyDatas[ids[i]];\r\n            else\r\n                petDailyDatas[i] = (dailyDatas[ids[i]]);\r\n        } \r\n        return petDailyDatas;\r\n    }\r\n    //#  \r\n    function registerPictureHash(uint petId, string memory _noseHash) public{\r\n        pets[petId].noseHash = _noseHash;\r\n    }\r\n    //#   \r\n    function getPictureHash(uint petId) public view returns (string memory){\r\n      return pets[petId].noseHash;\r\n    }\r\n    //#  \r\n    function createDailyData(uint petId, string memory date, string[] memory d) public {\r\n        uint ddId = numDailyData++;\r\n        dailyDatas[ddId] = DailyData(ddId, date,d[0],d[1],d[2],d[3],d[4],d[5],d[6],d[7],d[8],d[9]);\r\n        pets[petId].dailyDataIds.push(ddId);\r\n    }\r\n    //#get  \r\n    function getDailyData(uint ddId)public view returns (DailyData memory){\r\n        return dailyDatas[ddId];\r\n    }\r\n    //#get \r\n    function getTransaction(string memory txHash)public view returns (Transaction memory){\r\n        return transactions[txHash];\r\n    } \r\n\r\n    //# \r\n    function createTransaction(string memory txHash, address consumerAddress, address sellerAddress, uint petId) public{\r\n        transactions[txHash] = Transaction(txHash, consumerAddress, sellerAddress, petId);\r\n        users[consumerAddress].txHashs.push(txHash);\r\n        users[sellerAddress].txHashs.push(txHash);\r\n        users[consumerAddress].petIds.push(petId);\r\n        pets[petId].owner = consumerAddress;\r\n        pets[petId].price = 0;\r\n        if(users[sellerAddress].petIds.length == 1){\r\n            delete users[sellerAddress].petIds[0];\r\n            users[sellerAddress].petIds.length--;\r\n        }\r\n        else{\r\n            for(uint i=0; i<users[sellerAddress].petIds.length; i++){\r\n                uint iPetId = users[sellerAddress].petIds[i];\r\n                if(iPetId == petId){\r\n                    users[sellerAddress].petIds[i] = users[sellerAddress].petIds[users[sellerAddress].petIds.length - 1];\r\n                    delete users[sellerAddress].petIds[users[sellerAddress].petIds.length - 1];\r\n                    users[sellerAddress].petIds.length--;\r\n                    break;\r\n                }\r\n            }\r\n        }\r\n    }\r\n    //      ???    1.    . 2.   . \r\n    // Bapp      (seller address)   .    address \r\n    // 1.    address , 2.   ,   ()\r\n\r\n}",
  "sourcePath": "D:\\bc_market\\dog-system and file-server\\dog-system\\contracts\\PetMarketSystem.sol",
  "compiler": {
    "name": "solc",
    "version": "0.4.25+commit.59dbf8f1.Emscripten.clang"
  },
  "schemaVersion": "2.0.2",
  "updatedAt": "2019-07-21T10:55:08.111Z"
}